{
  "contractName": "Federation",
  "abi": [
    {
      "anonymous": false,
      "inputs": [
        {
          "indexed": false,
          "internalType": "bytes32",
          "name": "_id",
          "type": "bytes32"
        },
        {
          "indexed": false,
          "internalType": "uint256",
          "name": "max_bid_index",
          "type": "uint256"
        }
      ],
      "name": "NewBid",
      "type": "event"
    },
    {
      "anonymous": false,
      "inputs": [
        {
          "indexed": false,
          "internalType": "address",
          "name": "operator",
          "type": "address"
        },
        {
          "indexed": false,
          "internalType": "bytes32",
          "name": "name",
          "type": "bytes32"
        },
        {
          "indexed": false,
          "internalType": "enum Federation.Location",
          "name": "location",
          "type": "uint8"
        }
      ],
      "name": "OperatorRegistered",
      "type": "event"
    },
    {
      "anonymous": false,
      "inputs": [
        {
          "indexed": false,
          "internalType": "uint32",
          "name": "requirements",
          "type": "uint32"
        },
        {
          "indexed": false,
          "internalType": "enum Federation.Location[]",
          "name": "location",
          "type": "uint8[]"
        },
        {
          "indexed": false,
          "internalType": "bytes32",
          "name": "id",
          "type": "bytes32"
        }
      ],
      "name": "ServiceAnnouncement",
      "type": "event"
    },
    {
      "anonymous": false,
      "inputs": [
        {
          "indexed": false,
          "internalType": "bytes32",
          "name": "_id",
          "type": "bytes32"
        },
        {
          "indexed": false,
          "internalType": "address",
          "name": "bid_address_",
          "type": "address"
        }
      ],
      "name": "ServiceAnnouncementClosed",
      "type": "event"
    },
    {
      "constant": true,
      "inputs": [
        {
          "internalType": "bytes32",
          "name": "",
          "type": "bytes32"
        }
      ],
      "name": "bidCount",
      "outputs": [
        {
          "internalType": "uint256",
          "name": "",
          "type": "uint256"
        }
      ],
      "payable": false,
      "stateMutability": "view",
      "type": "function"
    },
    {
      "constant": true,
      "inputs": [
        {
          "internalType": "bytes32",
          "name": "",
          "type": "bytes32"
        },
        {
          "internalType": "uint256",
          "name": "",
          "type": "uint256"
        }
      ],
      "name": "biders",
      "outputs": [
        {
          "internalType": "address",
          "name": "bid_address",
          "type": "address"
        },
        {
          "internalType": "uint256",
          "name": "price",
          "type": "uint256"
        }
      ],
      "payable": false,
      "stateMutability": "view",
      "type": "function"
    },
    {
      "constant": true,
      "inputs": [
        {
          "internalType": "address",
          "name": "",
          "type": "address"
        }
      ],
      "name": "operator",
      "outputs": [
        {
          "internalType": "bytes32",
          "name": "name",
          "type": "bytes32"
        },
        {
          "internalType": "enum Federation.Location",
          "name": "location",
          "type": "uint8"
        }
      ],
      "payable": false,
      "stateMutability": "view",
      "type": "function"
    },
    {
      "constant": true,
      "inputs": [
        {
          "internalType": "bytes32",
          "name": "",
          "type": "bytes32"
        }
      ],
      "name": "service",
      "outputs": [
        {
          "internalType": "address",
          "name": "creator",
          "type": "address"
        },
        {
          "internalType": "uint32",
          "name": "requirements",
          "type": "uint32"
        },
        {
          "internalType": "bytes32",
          "name": "id",
          "type": "bytes32"
        },
        {
          "internalType": "enum Federation.ServiceState",
          "name": "state",
          "type": "uint8"
        }
      ],
      "payable": false,
      "stateMutability": "view",
      "type": "function"
    },
    {
      "constant": false,
      "inputs": [
        {
          "internalType": "bytes32",
          "name": "name",
          "type": "bytes32"
        },
        {
          "internalType": "enum Federation.Location",
          "name": "location",
          "type": "uint8"
        }
      ],
      "name": "addOperator",
      "outputs": [],
      "payable": false,
      "stateMutability": "nonpayable",
      "type": "function"
    },
    {
      "constant": true,
      "inputs": [
        {
          "internalType": "address",
          "name": "op_address",
          "type": "address"
        }
      ],
      "name": "getOperatorInfo",
      "outputs": [
        {
          "internalType": "bytes32",
          "name": "name",
          "type": "bytes32"
        },
        {
          "internalType": "enum Federation.Location",
          "name": "location",
          "type": "uint8"
        }
      ],
      "payable": false,
      "stateMutability": "view",
      "type": "function"
    },
    {
      "constant": false,
      "inputs": [
        {
          "internalType": "uint32",
          "name": "_requirements",
          "type": "uint32"
        },
        {
          "internalType": "enum Federation.Location[]",
          "name": "_location",
          "type": "uint8[]"
        },
        {
          "internalType": "bytes32",
          "name": "_id",
          "type": "bytes32"
        }
      ],
      "name": "AnnounceService",
      "outputs": [
        {
          "internalType": "enum Federation.ServiceState",
          "name": "",
          "type": "uint8"
        }
      ],
      "payable": false,
      "stateMutability": "nonpayable",
      "type": "function"
    },
    {
      "constant": true,
      "inputs": [
        {
          "internalType": "bytes32",
          "name": "_id",
          "type": "bytes32"
        },
        {
          "internalType": "address",
          "name": "_creator",
          "type": "address"
        }
      ],
      "name": "GetServiceAnnounce",
      "outputs": [
        {
          "internalType": "address",
          "name": "",
          "type": "address"
        },
        {
          "internalType": "uint32",
          "name": "",
          "type": "uint32"
        },
        {
          "internalType": "enum Federation.Location[]",
          "name": "",
          "type": "uint8[]"
        },
        {
          "internalType": "bytes32",
          "name": "",
          "type": "bytes32"
        },
        {
          "internalType": "enum Federation.ServiceState",
          "name": "",
          "type": "uint8"
        }
      ],
      "payable": false,
      "stateMutability": "view",
      "type": "function"
    },
    {
      "constant": false,
      "inputs": [
        {
          "internalType": "bytes32",
          "name": "_id",
          "type": "bytes32"
        },
        {
          "internalType": "uint32",
          "name": "_price",
          "type": "uint32"
        }
      ],
      "name": "Bid",
      "outputs": [
        {
          "internalType": "uint256",
          "name": "",
          "type": "uint256"
        }
      ],
      "payable": false,
      "stateMutability": "nonpayable",
      "type": "function"
    },
    {
      "constant": true,
      "inputs": [
        {
          "internalType": "bytes32",
          "name": "_id",
          "type": "bytes32"
        },
        {
          "internalType": "address",
          "name": "_creator",
          "type": "address"
        }
      ],
      "name": "GetBidCount",
      "outputs": [
        {
          "internalType": "uint256",
          "name": "",
          "type": "uint256"
        }
      ],
      "payable": false,
      "stateMutability": "view",
      "type": "function"
    },
    {
      "constant": true,
      "inputs": [
        {
          "internalType": "bytes32",
          "name": "_id",
          "type": "bytes32"
        },
        {
          "internalType": "uint256",
          "name": "bider_index",
          "type": "uint256"
        },
        {
          "internalType": "address",
          "name": "_creator",
          "type": "address"
        }
      ],
      "name": "GetBider",
      "outputs": [
        {
          "internalType": "address",
          "name": "",
          "type": "address"
        },
        {
          "internalType": "uint256",
          "name": "",
          "type": "uint256"
        },
        {
          "internalType": "uint256",
          "name": "",
          "type": "uint256"
        }
      ],
      "payable": false,
      "stateMutability": "view",
      "type": "function"
    },
    {
      "constant": false,
      "inputs": [
        {
          "internalType": "bytes32",
          "name": "_id",
          "type": "bytes32"
        },
        {
          "internalType": "uint256",
          "name": "bider_index",
          "type": "uint256"
        }
      ],
      "name": "CloseAnnounceService",
      "outputs": [
        {
          "internalType": "address",
          "name": "",
          "type": "address"
        },
        {
          "internalType": "uint256",
          "name": "",
          "type": "uint256"
        }
      ],
      "payable": false,
      "stateMutability": "nonpayable",
      "type": "function"
    }
  ],
  "bytecode": "0x608060405234801561001057600080fd5b50611af3806100206000396000f3fe608060405234801561001057600080fd5b50600436106100b45760003560e01c8063568a2e2911610071578063568a2e29146104e157806357c91f5f1461056057806365e0e672146105c25780638610372c146106145780639a30739114610656578063e4b8e27e146106c3576100b4565b806302b34f1f146100b95780630b69243e1461015657806327738b33146101fc57806327d9ab5d1461030157806347a0be021461036e5780634eabd428146103ed575b600080fd5b6100e5600480360360208110156100cf57600080fd5b81019080803590602001909291905050506106fe565b604051808573ffffffffffffffffffffffffffffffffffffffff1673ffffffffffffffffffffffffffffffffffffffff1681526020018463ffffffff1663ffffffff16815260200183815260200182600181111561013f57fe5b60ff16815260200194505050505060405180910390f35b6101ac6004803603606081101561016c57600080fd5b810190808035906020019092919080359060200190929190803573ffffffffffffffffffffffffffffffffffffffff16906020019092919050505061076b565b604051808473ffffffffffffffffffffffffffffffffffffffff1673ffffffffffffffffffffffffffffffffffffffff168152602001838152602001828152602001935050505060405180910390f35b6102486004803603604081101561021257600080fd5b8101908080359060200190929190803573ffffffffffffffffffffffffffffffffffffffff1690602001909291905050506109a6565b604051808673ffffffffffffffffffffffffffffffffffffffff1673ffffffffffffffffffffffffffffffffffffffff1681526020018563ffffffff1663ffffffff168152602001806020018481526020018360018111156102a657fe5b60ff168152602001828103825285818151815260200191508051906020019060200280838360005b838110156102e95780820151818401526020810190506102ce565b50505050905001965050505050505060405180910390f35b6103436004803603602081101561031757600080fd5b81019080803573ffffffffffffffffffffffffffffffffffffffff169060200190929190505050610b86565b6040518083815260200182600681111561035957fe5b60ff1681526020019250505060405180910390f35b6103a46004803603604081101561038457600080fd5b810190808035906020019092919080359060200190929190505050610c6d565b604051808373ffffffffffffffffffffffffffffffffffffffff1673ffffffffffffffffffffffffffffffffffffffff1681526020018281526020019250505060405180910390f35b6104bd6004803603606081101561040357600080fd5b81019080803563ffffffff1690602001909291908035906020019064010000000081111561043057600080fd5b82018360208201111561044257600080fd5b8035906020019184602083028401116401000000008311171561046457600080fd5b919080806020026020016040519081016040528093929190818152602001838360200280828437600081840152601f19601f82011690508083019250505050505050919291929080359060200190929190505050610f7c565b604051808260018111156104cd57fe5b60ff16815260200191505060405180910390f35b610517600480360360408110156104f757600080fd5b81019080803590602001909291908035906020019092919050505061128e565b604051808373ffffffffffffffffffffffffffffffffffffffff1673ffffffffffffffffffffffffffffffffffffffff1681526020018281526020019250505060405180910390f35b6105ac6004803603604081101561057657600080fd5b8101908080359060200190929190803573ffffffffffffffffffffffffffffffffffffffff1690602001909291905050506112ec565b6040518082815260200191505060405180910390f35b6105fe600480360360408110156105d857600080fd5b8101908080359060200190929190803563ffffffff169060200190929190505050611441565b6040518082815260200191505060405180910390f35b6106406004803603602081101561062a57600080fd5b81019080803590602001909291905050506116e1565b6040518082815260200191505060405180910390f35b6106986004803603602081101561066c57600080fd5b81019080803573ffffffffffffffffffffffffffffffffffffffff1690602001909291905050506116f9565b604051808381526020018260068111156106ae57fe5b60ff1681526020019250505060405180910390f35b6106fc600480360360408110156106d957600080fd5b8101908080359060200190929190803560ff16906020019092919050505061172a565b005b60026020528060005260406000206000915090508060000160009054906101000a900473ffffffffffffffffffffffffffffffffffffffff16908060000160149054906101000a900463ffffffff16908060020154908060030160009054906101000a900460ff16905084565b600080600080600260008881526020019081526020016000209050600060016000898152602001908152602001600020905087826002015414610816576040517f08c379a00000000000000000000000000000000000000000000000000000000081526004018080602001828103825260128152602001807f53657276696365206e6f7420657869737473000000000000000000000000000081525060200191505060405180910390fd5b8573ffffffffffffffffffffffffffffffffffffffff168260000160009054906101000a900473ffffffffffffffffffffffffffffffffffffffff1673ffffffffffffffffffffffffffffffffffffffff16146108be576040517f08c379a0000000000000000000000000000000000000000000000000000000008152600401808060200182810382526032815260200180611a8d6032913960400191505060405180910390fd5b6000818054905011610938576040517f08c379a000000000000000000000000000000000000000000000000000000000815260040180806020018281038252601d8152602001807f4e6f206269647320666f7220726571756573746564205365727669636500000081525060200191505060405180910390fd5b80878154811061094457fe5b906000526020600020906002020160000160009054906101000a900473ffffffffffffffffffffffffffffffffffffffff1681888154811061098257fe5b90600052602060002090600202016001015488945094509450505093509350939050565b600080606060008060006002600089815260200190815260200160002090508673ffffffffffffffffffffffffffffffffffffffff16600260008a815260200190815260200160002060000160009054906101000a900473ffffffffffffffffffffffffffffffffffffffff1673ffffffffffffffffffffffffffffffffffffffff1614610a9c576040517f08c379a00000000000000000000000000000000000000000000000000000000081526004018080602001828103825260128152602001807f53657276696365206e6f7420657869737473000000000000000000000000000081525060200191505060405180910390fd5b8060000160009054906101000a900473ffffffffffffffffffffffffffffffffffffffff168160000160149054906101000a900463ffffffff168260010183600201548460030160009054906101000a900460ff1682805480602002602001604051908101604052809291908181526020018280548015610b6a57602002820191906000526020600020906000905b82829054906101000a900460ff166006811115610b4457fe5b81526020019060010190602082600001049283019260010382029150808411610b2b5790505b5050505050925095509550955095509550509295509295909350565b6000806000600360008573ffffffffffffffffffffffffffffffffffffffff1673ffffffffffffffffffffffffffffffffffffffff168152602001908152602001600020905060006006811115610bd957fe5b8160010160009054906101000a900460ff166006811115610bf657fe5b11610c4c576040517f08c379a000000000000000000000000000000000000000000000000000000000815260040180806020018281038252603e815260200180611a29603e913960400191505060405180910390fd5b80600001548160010160009054906101000a900460ff169250925050915091565b6000806000600260008681526020019081526020016000209050600060016000878152602001908152602001600020905085826002015414610d17576040517f08c379a00000000000000000000000000000000000000000000000000000000081526004018080602001828103825260128152602001807f53657276696365206e6f7420657869737473000000000000000000000000000081525060200191505060405180910390fd5b3373ffffffffffffffffffffffffffffffffffffffff168260000160009054906101000a900473ffffffffffffffffffffffffffffffffffffffff1673ffffffffffffffffffffffffffffffffffffffff1614610dbf576040517f08c379a000000000000000000000000000000000000000000000000000000000815260040180806020018281038252602f8152602001806119fa602f913960400191505060405180910390fd5b60006001811115610dcc57fe5b8260030160009054906101000a900460ff166001811115610de957fe5b14610e3f576040517f08c379a00000000000000000000000000000000000000000000000000000000081526004018080602001828103825260238152602001806119d76023913960400191505060405180910390fd5b60018260030160006101000a81548160ff02191690836001811115610e6057fe5b02179055506000818681548110610e7357fe5b906000526020600020906002020160000160009054906101000a900473ffffffffffffffffffffffffffffffffffffffff1690507f1cdb104fe00b3bda053eb3965b6a885a04101cebbf7a635b4fe9a16c90a49bc68782604051808381526020018273ffffffffffffffffffffffffffffffffffffffff1673ffffffffffffffffffffffffffffffffffffffff1681526020019250505060405180910390a1818681548110610f1e57fe5b906000526020600020906002020160000160009054906101000a900473ffffffffffffffffffffffffffffffffffffffff16828781548110610f5c57fe5b906000526020600020906002020160010154945094505050509250929050565b600080600360003373ffffffffffffffffffffffffffffffffffffffff1673ffffffffffffffffffffffffffffffffffffffff1681526020019081526020016000209050600060026000858152602001908152602001600020905060006006811115610fe457fe5b8260010160009054906101000a900460ff16600681111561100157fe5b11611057576040517f08c379a000000000000000000000000000000000000000000000000000000000815260040180806020018281038252603981526020018061199e6039913960400191505060405180910390fd5b60008160000160149054906101000a900463ffffffff1663ffffffff16146110ca576040517f08c379a0000000000000000000000000000000000000000000000000000000008152600401808060200182810382526026815260200180611a676026913960400191505060405180910390fd5b6040518060a001604052803373ffffffffffffffffffffffffffffffffffffffff1681526020018763ffffffff1681526020018681526020018581526020016000600181111561111657fe5b8152506002600086815260200190815260200160002060008201518160000160006101000a81548173ffffffffffffffffffffffffffffffffffffffff021916908373ffffffffffffffffffffffffffffffffffffffff16021790555060208201518160000160146101000a81548163ffffffff021916908363ffffffff16021790555060408201518160010190805190602001906111b69291906118be565b506060820151816002015560808201518160030160006101000a81548160ff021916908360018111156111e557fe5b02179055509050507f0fe43f72306119bf1713bc3e63838b03722865722844842dbd6c85586a8f3cab868686604051808463ffffffff1663ffffffff16815260200180602001838152602001828103825284818151815260200191508051906020019060200280838360005b8381101561126c578082015181840152602081019050611251565b5050505090500194505050505060405180910390a16000925050509392505050565b600160205281600052604060002081815481106112a757fe5b9060005260206000209060020201600091509150508060000160009054906101000a900473ffffffffffffffffffffffffffffffffffffffff16908060010154905082565b6000806002600085815260200190815260200160002090508381600201541461137d576040517f08c379a00000000000000000000000000000000000000000000000000000000081526004018080602001828103825260128152602001807f53657276696365206e6f7420657869737473000000000000000000000000000081525060200191505060405180910390fd5b8273ffffffffffffffffffffffffffffffffffffffff168160000160009054906101000a900473ffffffffffffffffffffffffffffffffffffffff1673ffffffffffffffffffffffffffffffffffffffff1614611425576040517f08c379a0000000000000000000000000000000000000000000000000000000008152600401808060200182810382526032815260200180611a8d6032913960400191505060405180910390fd5b6000808581526020019081526020016000205491505092915050565b600080600360003373ffffffffffffffffffffffffffffffffffffffff1673ffffffffffffffffffffffffffffffffffffffff16815260200190815260200160002090506000600260008681526020019081526020016000209050600060068111156114a957fe5b8260010160009054906101000a900460ff1660068111156114c657fe5b1161151c576040517f08c379a000000000000000000000000000000000000000000000000000000000815260040180806020018281038252603981526020018061199e6039913960400191505060405180910390fd5b6000600181111561152957fe5b8160030160009054906101000a900460ff16600181111561154657fe5b146115b9576040517f08c379a000000000000000000000000000000000000000000000000000000000815260040180806020018281038252601f8152602001807f5365727669636520697320636c6f736564206f72206e6f74206578697374730081525060200191505060405180910390fd5b60006001600087815260200190815260200160002060405180604001604052803373ffffffffffffffffffffffffffffffffffffffff1681526020018763ffffffff168152509080600181540180825580915050906001820390600052602060002090600202016000909192909190915060008201518160000160006101000a81548173ffffffffffffffffffffffffffffffffffffffff021916908373ffffffffffffffffffffffffffffffffffffffff160217905550602082015181600101555050905080600080888152602001908152602001600020819055507fdb578ec7204282ed3ffcec84ef9d2ca9adda7fb0c0b707010bad5cce9f18f41f8682604051808381526020018281526020019250505060405180910390a180935050505092915050565b60006020528060005260406000206000915090505481565b60036020528060005260406000206000915090508060000154908060010160009054906101000a900460ff16905082565b6000600360003373ffffffffffffffffffffffffffffffffffffffff1673ffffffffffffffffffffffffffffffffffffffff16815260200190815260200160002090506000602060ff16116117e7576040517f08c379a00000000000000000000000000000000000000000000000000000000081526004018080602001828103825260118152602001807f4e616d65206973206e6f742076616c696400000000000000000000000000000081525060200191505060405180910390fd5b6006808111156117f357fe5b8260068111156117ff57fe5b111561180a57600080fd5b828160000181905550818160010160006101000a81548160ff0219169083600681111561183357fe5b02179055507fc4d5154aa33ab1ed686a7942f2f8fb144d90fad91397f6424bec5b5a2379ff34338484604051808473ffffffffffffffffffffffffffffffffffffffff1673ffffffffffffffffffffffffffffffffffffffff1681526020018381526020018260068111156118a457fe5b60ff168152602001935050505060405180910390a1505050565b82805482825590600052602060002090601f0160209004810192821561195c5791602002820160005b8382111561192d57835183826101000a81548160ff0219169083600681111561190c57fe5b021790555092602001926001016020816000010492830192600103026118e7565b801561195a5782816101000a81549060ff021916905560010160208160000104928301926001030261192d565b505b509050611969919061196d565b5090565b61199a91905b8082111561199657600081816101000a81549060ff021916905550600101611973565b5090565b9056fe4f70657261746f72206973206e6f7420726567697374657265642e2043616e206e6f74206269642e20506c656173652072656769737465722e5365727669636520616e6e6f756e63656d656e7420616c726561647920636c6f7365644f6e6c7920736572766963652063726561746f722063616e20636c6f73652074686520616e6e6f756e63656d656e744f70657261746f72206973206e6f7420726567697374657265642077697468207468697320616464726573732e20506c656173652072656769737465722e5365727669636520494420666f72206f70657261746f7220616c7265616479206578697374734f6e6c7920736572766963652063726561746f722063616e206c6f6f6b20696e746f2074686520696e666f726d6174696f6ea265627a7a7231582036297c66c8894e967782a0566962e48b85ac3647e6151f62e89b452f70e74d5464736f6c63430005100032",
  "source": "pragma solidity >=0.4.21 <0.7.0;\ncontract Federation {\n    \n    enum Location {Unregistered, Europe, Africa, Asia, NorthAmerica, SouthAmerica, Australia}\n    enum ServiceState {Open, Closed}\n    \n    struct Operator {\n        bytes32 name;\n        Location location;\n    }\n\n    struct Service {\n        address creator;\n        uint32 requirements;\n        Location[] locations;\n        bytes32 id;\n        ServiceState state;\n    }\n\n    struct Bider {\n        address bid_address;\n        uint price;\n    } \n\n    mapping(bytes32 => uint) public bidCount;\n    mapping(bytes32 => Bider[]) public biders;\n    mapping(bytes32 => Service) public service;\n    mapping(address => Operator) public operator;\n\n    event OperatorRegistered(address operator, bytes32 name, Location location);\n    event ServiceAnnouncement(uint32 requirements, Location[] location, bytes32 id);\n    event NewBid(bytes32 _id, uint256 max_bid_index);\n    event ServiceAnnouncementClosed(bytes32 _id, address bid_address_);\n\n    function addOperator(bytes32 name, Location location) public {\n        Operator storage current_operator = operator[msg.sender];\n        require(name.length > 0, \"Name is not valid\");\n        require(location <= Location.Australia);\n        \n        current_operator.name = name;\n        current_operator.location = location;\n        emit OperatorRegistered(msg.sender, name, location);\n    }\n\n    function getOperatorInfo(address op_address) public view returns (bytes32 name, Location location) {\n        Operator storage current_operator = operator[op_address];\n        require(current_operator.location > Location.Unregistered, \"Operator is not registered with this address. Please register.\");\n        return (current_operator.name, current_operator.location);\n\t}\n\n    function AnnounceService(uint32 _requirements, Location[] memory _location, bytes32 _id) public returns(ServiceState) {\n        Operator storage current_operator = operator[msg.sender];\n        Service storage current_service = service[_id];\n        require(current_operator.location > Location.Unregistered, \"Operator is not registered. Can not bid. Please register.\");\n        require(current_service.requirements == 0, \"Service ID for operator already exists\");\n\n        service[_id] = Service(msg.sender, _requirements, _location, _id, ServiceState.Open);\n        emit ServiceAnnouncement(_requirements, _location, _id);\n        return ServiceState.Open;\n    }\n\n    function GetServiceAnnounce(bytes32 _id, address _creator) public view returns (address, uint32, Location[] memory, bytes32, ServiceState) {\n        Service storage current_service = service[_id];\n        require(service[_id].creator == _creator, \"Service not exists\");\n        return (current_service.creator, current_service.requirements, current_service.locations, current_service.id, current_service.state);\n    }\n\n    function Bid(bytes32 _id, uint32 _price) public returns (uint256) {\n        Operator storage current_operator = operator[msg.sender];\n        Service storage current_service = service[_id];\n        require(current_operator.location > Location.Unregistered, \"Operator is not registered. Can not bid. Please register.\");\n        require(current_service.state == ServiceState.Open, \"Service is closed or not exists\");\n        uint256 max_bid_index = biders[_id].push(Bider(msg.sender, _price));\n        bidCount[_id] =  max_bid_index;\n        emit NewBid(_id, max_bid_index);\n        return max_bid_index;\n    }\n\n    function GetBidCount(bytes32 _id, address _creator) public view returns (uint256) {\n        Service storage current_service = service[_id];\n        require(current_service.id == _id, \"Service not exists\");\n        require(current_service.creator == _creator, \"Only service creator can look into the information\");\n        return bidCount[_id];\n    }\n\n    function GetBider(bytes32 _id, uint256 bider_index, address _creator) public view returns (address, uint, uint256) {\n        Service storage current_service = service[_id];\n        Bider[] storage current_bid_pool = biders[_id];\n        require(current_service.id == _id, \"Service not exists\");\n        require(current_service.creator == _creator, \"Only service creator can look into the information\");\n        require(current_bid_pool.length > 0, \"No bids for requested Service\");\n        return (current_bid_pool[bider_index].bid_address, current_bid_pool[bider_index].price, bider_index);\n    }\n\n    function CloseAnnounceService(bytes32 _id, uint256 bider_index) public returns (address, uint) {\n        Service storage current_service = service[_id];\n        Bider[] storage current_bid_pool = biders[_id];\n        require(current_service.id == _id, \"Service not exists\");\n        require(current_service.creator == msg.sender, \"Only service creator can close the announcement\");\n        require(current_service.state == ServiceState.Open, \"Service announcement already closed\");\n\n        current_service.state = ServiceState.Closed;\n        address bid_address_= current_bid_pool[bider_index].bid_address;\n        emit ServiceAnnouncementClosed(_id, bid_address_);\n        return (current_bid_pool[bider_index].bid_address, current_bid_pool[bider_index].price);\n    }\n}",
  "sourcePath": "/mnt/c/Users/user/Documents/5G-Growth/papers/Federation/Federation - mininet/code/federation_mininet/contracts/contracts/Federation.sol",
  "compiler": {
    "name": "solc",
    "version": "0.5.16+commit.9c3226ce.Emscripten.clang"
  },
  "schemaVersion": "3.0.23",
  "updatedAt": "2020-06-08T13:11:55.656Z",
  "networkType": "ethereum",
  "devdoc": {
    "methods": {}
  },
  "userdoc": {
    "methods": {}
  }
}