{
  "contractName": "Federation",
  "abi": [
    {
      "anonymous": false,
      "inputs": [
        {
          "indexed": false,
          "internalType": "bytes32",
          "name": "_id",
          "type": "bytes32"
        },
        {
          "indexed": false,
          "internalType": "uint256",
          "name": "max_bid_index",
          "type": "uint256"
        }
      ],
      "name": "NewBid",
      "type": "event"
    },
    {
      "anonymous": false,
      "inputs": [
        {
          "indexed": false,
          "internalType": "address",
          "name": "operator",
          "type": "address"
        },
        {
          "indexed": false,
          "internalType": "bytes32",
          "name": "name",
          "type": "bytes32"
        }
      ],
      "name": "OperatorRegistered",
      "type": "event"
    },
    {
      "anonymous": false,
      "inputs": [
        {
          "indexed": false,
          "internalType": "bytes32",
          "name": "requirements",
          "type": "bytes32"
        },
        {
          "indexed": false,
          "internalType": "bytes32",
          "name": "id",
          "type": "bytes32"
        }
      ],
      "name": "ServiceAnnouncement",
      "type": "event"
    },
    {
      "anonymous": false,
      "inputs": [
        {
          "indexed": false,
          "internalType": "bytes32",
          "name": "_id",
          "type": "bytes32"
        }
      ],
      "name": "ServiceAnnouncementClosed",
      "type": "event"
    },
    {
      "anonymous": false,
      "inputs": [
        {
          "indexed": false,
          "internalType": "bytes32",
          "name": "_id",
          "type": "bytes32"
        }
      ],
      "name": "ServiceDeployedEvent",
      "type": "event"
    },
    {
      "constant": true,
      "inputs": [
        {
          "internalType": "bytes32",
          "name": "",
          "type": "bytes32"
        }
      ],
      "name": "bidCount",
      "outputs": [
        {
          "internalType": "uint256",
          "name": "",
          "type": "uint256"
        }
      ],
      "payable": false,
      "stateMutability": "view",
      "type": "function"
    },
    {
      "constant": true,
      "inputs": [
        {
          "internalType": "bytes32",
          "name": "",
          "type": "bytes32"
        },
        {
          "internalType": "uint256",
          "name": "",
          "type": "uint256"
        }
      ],
      "name": "bids",
      "outputs": [
        {
          "internalType": "address",
          "name": "bid_address",
          "type": "address"
        },
        {
          "internalType": "uint256",
          "name": "price",
          "type": "uint256"
        },
        {
          "internalType": "bytes32",
          "name": "endpoint_provider",
          "type": "bytes32"
        }
      ],
      "payable": false,
      "stateMutability": "view",
      "type": "function"
    },
    {
      "constant": true,
      "inputs": [
        {
          "internalType": "address",
          "name": "",
          "type": "address"
        }
      ],
      "name": "operator",
      "outputs": [
        {
          "internalType": "bytes32",
          "name": "name",
          "type": "bytes32"
        },
        {
          "internalType": "bool",
          "name": "registered",
          "type": "bool"
        }
      ],
      "payable": false,
      "stateMutability": "view",
      "type": "function"
    },
    {
      "constant": true,
      "inputs": [
        {
          "internalType": "bytes32",
          "name": "",
          "type": "bytes32"
        }
      ],
      "name": "service",
      "outputs": [
        {
          "internalType": "address",
          "name": "creator",
          "type": "address"
        },
        {
          "internalType": "bytes32",
          "name": "endpoint_consumer",
          "type": "bytes32"
        },
        {
          "internalType": "bytes32",
          "name": "id",
          "type": "bytes32"
        },
        {
          "internalType": "address",
          "name": "provider",
          "type": "address"
        },
        {
          "internalType": "bytes32",
          "name": "endpoint_provider",
          "type": "bytes32"
        },
        {
          "internalType": "bytes32",
          "name": "req_info",
          "type": "bytes32"
        },
        {
          "internalType": "enum Federation.ServiceState",
          "name": "state",
          "type": "uint8"
        }
      ],
      "payable": false,
      "stateMutability": "view",
      "type": "function"
    },
    {
      "constant": false,
      "inputs": [
        {
          "internalType": "bytes32",
          "name": "name",
          "type": "bytes32"
        }
      ],
      "name": "addOperator",
      "outputs": [],
      "payable": false,
      "stateMutability": "nonpayable",
      "type": "function"
    },
    {
      "constant": true,
      "inputs": [
        {
          "internalType": "address",
          "name": "op_address",
          "type": "address"
        }
      ],
      "name": "getOperatorInfo",
      "outputs": [
        {
          "internalType": "bytes32",
          "name": "name",
          "type": "bytes32"
        }
      ],
      "payable": false,
      "stateMutability": "view",
      "type": "function"
    },
    {
      "constant": false,
      "inputs": [
        {
          "internalType": "bytes32",
          "name": "_requirements",
          "type": "bytes32"
        },
        {
          "internalType": "bytes32",
          "name": "_endpoint_consumer",
          "type": "bytes32"
        },
        {
          "internalType": "bytes32",
          "name": "_id",
          "type": "bytes32"
        }
      ],
      "name": "AnnounceService",
      "outputs": [
        {
          "internalType": "enum Federation.ServiceState",
          "name": "",
          "type": "uint8"
        }
      ],
      "payable": false,
      "stateMutability": "nonpayable",
      "type": "function"
    },
    {
      "constant": true,
      "inputs": [
        {
          "internalType": "bytes32",
          "name": "_id",
          "type": "bytes32"
        }
      ],
      "name": "GetServiceState",
      "outputs": [
        {
          "internalType": "enum Federation.ServiceState",
          "name": "",
          "type": "uint8"
        }
      ],
      "payable": false,
      "stateMutability": "view",
      "type": "function"
    },
    {
      "constant": true,
      "inputs": [
        {
          "internalType": "bytes32",
          "name": "_id",
          "type": "bytes32"
        },
        {
          "internalType": "bool",
          "name": "provider",
          "type": "bool"
        },
        {
          "internalType": "address",
          "name": "call_address",
          "type": "address"
        }
      ],
      "name": "GetServiceInfo",
      "outputs": [
        {
          "internalType": "bytes32",
          "name": "",
          "type": "bytes32"
        },
        {
          "internalType": "bytes32",
          "name": "",
          "type": "bytes32"
        },
        {
          "internalType": "bytes32",
          "name": "",
          "type": "bytes32"
        }
      ],
      "payable": false,
      "stateMutability": "view",
      "type": "function"
    },
    {
      "constant": false,
      "inputs": [
        {
          "internalType": "bytes32",
          "name": "_id",
          "type": "bytes32"
        },
        {
          "internalType": "uint32",
          "name": "_price",
          "type": "uint32"
        },
        {
          "internalType": "bytes32",
          "name": "_endpoint",
          "type": "bytes32"
        }
      ],
      "name": "PlaceBid",
      "outputs": [
        {
          "internalType": "uint256",
          "name": "",
          "type": "uint256"
        }
      ],
      "payable": false,
      "stateMutability": "nonpayable",
      "type": "function"
    },
    {
      "constant": true,
      "inputs": [
        {
          "internalType": "bytes32",
          "name": "_id",
          "type": "bytes32"
        },
        {
          "internalType": "address",
          "name": "_creator",
          "type": "address"
        }
      ],
      "name": "GetBidCount",
      "outputs": [
        {
          "internalType": "uint256",
          "name": "",
          "type": "uint256"
        }
      ],
      "payable": false,
      "stateMutability": "view",
      "type": "function"
    },
    {
      "constant": true,
      "inputs": [
        {
          "internalType": "bytes32",
          "name": "_id",
          "type": "bytes32"
        },
        {
          "internalType": "uint256",
          "name": "bider_index",
          "type": "uint256"
        },
        {
          "internalType": "address",
          "name": "_creator",
          "type": "address"
        }
      ],
      "name": "GetBid",
      "outputs": [
        {
          "internalType": "address",
          "name": "",
          "type": "address"
        },
        {
          "internalType": "uint256",
          "name": "",
          "type": "uint256"
        },
        {
          "internalType": "uint256",
          "name": "",
          "type": "uint256"
        }
      ],
      "payable": false,
      "stateMutability": "view",
      "type": "function"
    },
    {
      "constant": false,
      "inputs": [
        {
          "internalType": "bytes32",
          "name": "_id",
          "type": "bytes32"
        },
        {
          "internalType": "uint256",
          "name": "bider_index",
          "type": "uint256"
        }
      ],
      "name": "ChooseProvider",
      "outputs": [
        {
          "internalType": "bytes32",
          "name": "endpoint_provider",
          "type": "bytes32"
        }
      ],
      "payable": false,
      "stateMutability": "nonpayable",
      "type": "function"
    },
    {
      "constant": true,
      "inputs": [
        {
          "internalType": "bytes32",
          "name": "_id",
          "type": "bytes32"
        },
        {
          "internalType": "address",
          "name": "_winner",
          "type": "address"
        }
      ],
      "name": "isWinner",
      "outputs": [
        {
          "internalType": "bool",
          "name": "",
          "type": "bool"
        }
      ],
      "payable": false,
      "stateMutability": "view",
      "type": "function"
    },
    {
      "constant": false,
      "inputs": [
        {
          "internalType": "bytes32",
          "name": "info",
          "type": "bytes32"
        },
        {
          "internalType": "bytes32",
          "name": "_id",
          "type": "bytes32"
        }
      ],
      "name": "ServiceDeployed",
      "outputs": [
        {
          "internalType": "bool",
          "name": "",
          "type": "bool"
        }
      ],
      "payable": false,
      "stateMutability": "nonpayable",
      "type": "function"
    }
  ],
  "bytecode": "0x608060405234801561001057600080fd5b50611fad806100206000396000f3fe608060405234801561001057600080fd5b50600436106100f55760003560e01c80636f78c7cd116100975780639cc19f5b116100665780639cc19f5b1461055b578063a255916b146105c1578063ce646b1314610611578063f7e65b1c1461068d576100f5565b80636f78c7cd14610438578063709321d3146104665780638610372c146104b65780639a307391146104f8576100f5565b80633185e463116100d35780633185e463146102805780633ae10dce146102e457806357c91f5f146103305780635fc9bd9214610392576100f5565b806302b34f1f146100fa57806327d9ab5d146101cc5780632f6ddeae14610224575b600080fd5b6101266004803603602081101561011057600080fd5b8101908080359060200190929190505050610713565b604051808873ffffffffffffffffffffffffffffffffffffffff1673ffffffffffffffffffffffffffffffffffffffff1681526020018781526020018681526020018573ffffffffffffffffffffffffffffffffffffffff1673ffffffffffffffffffffffffffffffffffffffff1681526020018481526020018381526020018260028111156101b257fe5b60ff16815260200197505050505050505060405180910390f35b61020e600480360360208110156101e257600080fd5b81019080803573ffffffffffffffffffffffffffffffffffffffff1690602001909291905050506107a2565b6040518082815260200191505060405180910390f35b61026a6004803603606081101561023a57600080fd5b8101908080359060200190929190803563ffffffff16906020019092919080359060200190929190505050610861565b6040518082815260200191505060405180910390f35b6102c06004803603606081101561029657600080fd5b81019080803590602001909291908035906020019092919080359060200190929190505050610b00565b604051808260028111156102d057fe5b60ff16815260200191505060405180910390f35b61031a600480360360408110156102fa57600080fd5b810190808035906020019092919080359060200190929190505050610dd2565b6040518082815260200191505060405180910390f35b61037c6004803603604081101561034657600080fd5b8101908080359060200190929190803573ffffffffffffffffffffffffffffffffffffffff1690602001909291905050506110ea565b6040518082815260200191505060405180910390f35b6103e8600480360360608110156103a857600080fd5b810190808035906020019092919080359060200190929190803573ffffffffffffffffffffffffffffffffffffffff16906020019092919050505061123f565b604051808473ffffffffffffffffffffffffffffffffffffffff1673ffffffffffffffffffffffffffffffffffffffff168152602001838152602001828152602001935050505060405180910390f35b6104646004803603602081101561044e57600080fd5b810190808035906020019092919050505061148c565b005b61049c6004803603604081101561047c57600080fd5b810190808035906020019092919080359060200190929190505050611669565b604051808215151515815260200191505060405180910390f35b6104e2600480360360208110156104cc57600080fd5b8101908080359060200190929190505050611893565b6040518082815260200191505060405180910390f35b61053a6004803603602081101561050e57600080fd5b81019080803573ffffffffffffffffffffffffffffffffffffffff1690602001909291905050506118ab565b60405180838152602001821515151581526020019250505060405180910390f35b6105a76004803603604081101561057157600080fd5b8101908080359060200190929190803573ffffffffffffffffffffffffffffffffffffffff1690602001909291905050506118dc565b604051808215151515815260200191505060405180910390f35b6105ed600480360360208110156105d757600080fd5b81019080803590602001909291905050506119e2565b604051808260028111156105fd57fe5b60ff16815260200191505060405180910390f35b6106696004803603606081101561062757600080fd5b8101908080359060200190929190803515159060200190929190803573ffffffffffffffffffffffffffffffffffffffff169060200190929190505050611a0f565b60405180848152602001838152602001828152602001935050505060405180910390f35b6106c3600480360360408110156106a357600080fd5b810190808035906020019092919080359060200190929190505050611d30565b604051808473ffffffffffffffffffffffffffffffffffffffff1673ffffffffffffffffffffffffffffffffffffffff168152602001838152602001828152602001935050505060405180910390f35b60026020528060005260406000206000915090508060000160009054906101000a900473ffffffffffffffffffffffffffffffffffffffff16908060010154908060020154908060030160009054906101000a900473ffffffffffffffffffffffffffffffffffffffff16908060040154908060050154908060060160009054906101000a900460ff16905087565b600080600360008473ffffffffffffffffffffffffffffffffffffffff1673ffffffffffffffffffffffffffffffffffffffff1681526020019081526020016000209050600115158160010160009054906101000a900460ff16151514610854576040517f08c379a000000000000000000000000000000000000000000000000000000000815260040180806020018281038252603e815260200180611e81603e913960400191505060405180910390fd5b8060000154915050919050565b600080600360003373ffffffffffffffffffffffffffffffffffffffff1673ffffffffffffffffffffffffffffffffffffffff16815260200190815260200160002090506000600260008781526020019081526020016000209050600115158260010160009054906101000a900460ff1615151461092a576040517f08c379a0000000000000000000000000000000000000000000000000000000008152600401808060200182810382526039815260200180611dca6039913960400191505060405180910390fd5b6000600281111561093757fe5b8160060160009054906101000a900460ff16600281111561095457fe5b146109c7576040517f08c379a000000000000000000000000000000000000000000000000000000000815260040180806020018281038252601f8152602001807f5365727669636520697320636c6f736564206f72206e6f74206578697374730081525060200191505060405180910390fd5b60006001600088815260200190815260200160002060405180606001604052803373ffffffffffffffffffffffffffffffffffffffff1681526020018863ffffffff168152602001878152509080600181540180825580915050906001820390600052602060002090600302016000909192909190915060008201518160000160006101000a81548173ffffffffffffffffffffffffffffffffffffffff021916908373ffffffffffffffffffffffffffffffffffffffff16021790555060208201518160010155604082015181600201555050905080600080898152602001908152602001600020819055507fdb578ec7204282ed3ffcec84ef9d2ca9adda7fb0c0b707010bad5cce9f18f41f8782604051808381526020018281526020019250505060405180910390a18093505050509392505050565b600080600360003373ffffffffffffffffffffffffffffffffffffffff1673ffffffffffffffffffffffffffffffffffffffff16815260200190815260200160002090506000600260008581526020019081526020016000209050600115158260010160009054906101000a900460ff16151514610bc9576040517f08c379a0000000000000000000000000000000000000000000000000000000008152600401808060200182810382526039815260200180611dca6039913960400191505060405180910390fd5b8381600201541415610c26576040517f08c379a0000000000000000000000000000000000000000000000000000000008152600401808060200182810382526026815260200180611ebf6026913960400191505060405180910390fd5b6040518060e001604052803373ffffffffffffffffffffffffffffffffffffffff1681526020018681526020018581526020013373ffffffffffffffffffffffffffffffffffffffff16815260200186815260200187815260200160006002811115610c8e57fe5b8152506002600086815260200190815260200160002060008201518160000160006101000a81548173ffffffffffffffffffffffffffffffffffffffff021916908373ffffffffffffffffffffffffffffffffffffffff160217905550602082015181600101556040820151816002015560608201518160030160006101000a81548173ffffffffffffffffffffffffffffffffffffffff021916908373ffffffffffffffffffffffffffffffffffffffff1602179055506080820151816004015560a0820151816005015560c08201518160060160006101000a81548160ff02191690836002811115610d7e57fe5b02179055509050507fc36b5a7833301a31fd0ae95ceeab5fda3f6a3aee8a8689bf06360711592a6a0f8685604051808381526020018281526020019250505060405180910390a16000925050509392505050565b600080600260008581526020019081526020016000209050600060016000868152602001908152602001600020905084826002015414610e7a576040517f08c379a00000000000000000000000000000000000000000000000000000000081526004018080602001828103825260128152602001807f53657276696365206e6f7420657869737473000000000000000000000000000081525060200191505060405180910390fd5b3373ffffffffffffffffffffffffffffffffffffffff168260000160009054906101000a900473ffffffffffffffffffffffffffffffffffffffff1673ffffffffffffffffffffffffffffffffffffffff1614610f22576040517f08c379a000000000000000000000000000000000000000000000000000000000815260040180806020018281038252602f815260200180611e52602f913960400191505060405180910390fd5b60006002811115610f2f57fe5b8260060160009054906101000a900460ff166002811115610f4c57fe5b14610fa2576040517f08c379a0000000000000000000000000000000000000000000000000000000008152600401808060200182810382526023815260200180611e036023913960400191505060405180910390fd5b60018260060160006101000a81548160ff02191690836002811115610fc357fe5b0217905550808481548110610fd457fe5b906000526020600020906003020160000160009054906101000a900473ffffffffffffffffffffffffffffffffffffffff166002600087815260200190815260200160002060030160006101000a81548173ffffffffffffffffffffffffffffffffffffffff021916908373ffffffffffffffffffffffffffffffffffffffff16021790555080848154811061106657fe5b90600052602060002090600302016002015460026000878152602001908152602001600020600401819055507f0fa967e5a697cd5b1a32e3ed8e2a5b983caf2ae1bb54e8fe37fae071347e8fea856040518082815260200191505060405180910390a160026000868152602001908152602001600020600401549250505092915050565b6000806002600085815260200190815260200160002090508381600201541461117b576040517f08c379a00000000000000000000000000000000000000000000000000000000081526004018080602001828103825260128152602001807f53657276696365206e6f7420657869737473000000000000000000000000000081525060200191505060405180910390fd5b8273ffffffffffffffffffffffffffffffffffffffff168160000160009054906101000a900473ffffffffffffffffffffffffffffffffffffffff1673ffffffffffffffffffffffffffffffffffffffff1614611223576040517f08c379a0000000000000000000000000000000000000000000000000000000008152600401808060200182810382526032815260200180611f476032913960400191505060405180910390fd5b6000808581526020019081526020016000205491505092915050565b6000806000806002600088815260200190815260200160002090506000600160008981526020019081526020016000209050878260020154146112ea576040517f08c379a00000000000000000000000000000000000000000000000000000000081526004018080602001828103825260128152602001807f53657276696365206e6f7420657869737473000000000000000000000000000081525060200191505060405180910390fd5b8573ffffffffffffffffffffffffffffffffffffffff168260000160009054906101000a900473ffffffffffffffffffffffffffffffffffffffff1673ffffffffffffffffffffffffffffffffffffffff1614611392576040517f08c379a0000000000000000000000000000000000000000000000000000000008152600401808060200182810382526032815260200180611f476032913960400191505060405180910390fd5b6000600160008a8152602001908152602001600020805490501161141e576040517f08c379a000000000000000000000000000000000000000000000000000000000815260040180806020018281038252601d8152602001807f4e6f206269647320666f7220726571756573746564205365727669636500000081525060200191505060405180910390fd5b80878154811061142a57fe5b906000526020600020906003020160000160009054906101000a900473ffffffffffffffffffffffffffffffffffffffff1681888154811061146857fe5b90600052602060002090600302016001015488945094509450505093509350939050565b6000600360003373ffffffffffffffffffffffffffffffffffffffff1673ffffffffffffffffffffffffffffffffffffffff16815260200190815260200160002090506000602060ff1611611549576040517f08c379a00000000000000000000000000000000000000000000000000000000081526004018080602001828103825260118152602001807f4e616d65206973206e6f742076616c696400000000000000000000000000000081525060200191505060405180910390fd5b600015158160010160009054906101000a900460ff161515146115d4576040517f08c379a000000000000000000000000000000000000000000000000000000000815260040180806020018281038252601b8152602001807f4f70657261746f7220616c72656164792072656769737465726564000000000081525060200191505060405180910390fd5b81816000018190555060018160010160006101000a81548160ff0219169083151502179055507fe8e68cef1c3a761ed7be7e8463a375f27f7bc335e51824223cacce636ec5c3fe3383604051808373ffffffffffffffffffffffffffffffffffffffff1673ffffffffffffffffffffffffffffffffffffffff1681526020018281526020019250505060405180910390a15050565b600080600260008481526020019081526020016000209050828160020154146116fa576040517f08c379a00000000000000000000000000000000000000000000000000000000081526004018080602001828103825260128152602001807f53657276696365206e6f7420657869737473000000000000000000000000000081525060200191505060405180910390fd5b3373ffffffffffffffffffffffffffffffffffffffff168160030160009054906101000a900473ffffffffffffffffffffffffffffffffffffffff1673ffffffffffffffffffffffffffffffffffffffff16146117a2576040517f08c379a000000000000000000000000000000000000000000000000000000000815260040180806020018281038252602c815260200180611e26602c913960400191505060405180910390fd5b600160028111156117af57fe5b8160060160009054906101000a900460ff1660028111156117cc57fe5b14611822576040517f08c379a0000000000000000000000000000000000000000000000000000000008152600401808060200182810382526035815260200180611d956035913960400191505060405180910390fd5b60028160060160006101000a81548160ff0219169083600281111561184357fe5b02179055508381600501819055507f5cfc0037f79529279d288edea103e1e1d3f2a2b727bdf8113017043ea939488b836040518082815260200191505060405180910390a1600191505092915050565b60006020528060005260406000206000915090505481565b60036020528060005260406000206000915090508060000154908060010160009054906101000a900460ff16905082565b6000806002600085815260200190815260200160002090506001600281111561190157fe5b8160060160009054906101000a900460ff16600281111561191e57fe5b14611974576040517f08c379a0000000000000000000000000000000000000000000000000000000008152600401808060200182810382526035815260200180611d956035913960400191505060405180910390fd5b8273ffffffffffffffffffffffffffffffffffffffff168160030160009054906101000a900473ffffffffffffffffffffffffffffffffffffffff1673ffffffffffffffffffffffffffffffffffffffff1614156119d65760019150506119dc565b60009150505b92915050565b60006002600083815260200190815260200160002060060160009054906101000a900460ff169050919050565b600080600080600360008673ffffffffffffffffffffffffffffffffffffffff1673ffffffffffffffffffffffffffffffffffffffff16815260200190815260200160002090506000600260008981526020019081526020016000209050600115158260010160009054906101000a900460ff16151514611adb576040517f08c379a000000000000000000000000000000000000000000000000000000000815260040180806020018281038252603f815260200180611ee5603f913960400191505060405180910390fd5b60016002811115611ae857fe5b8160060160009054906101000a900460ff166002811115611b0557fe5b1015611b5c576040517f08c379a0000000000000000000000000000000000000000000000000000000008152600401808060200182810382526023815260200180611f246023913960400191505060405180910390fd5b600115158715151415611c4a578573ffffffffffffffffffffffffffffffffffffffff168160030160009054906101000a900473ffffffffffffffffffffffffffffffffffffffff1673ffffffffffffffffffffffffffffffffffffffff1614611c2e576040517f08c379a000000000000000000000000000000000000000000000000000000000815260040180806020018281038252601b8152602001807f5468697320646f6d61696e206973206e6f7420612077696e6e6572000000000081525060200191505060405180910390fd5b8060020154816001015482600501549450945094505050611d27565b8573ffffffffffffffffffffffffffffffffffffffff168160000160009054906101000a900473ffffffffffffffffffffffffffffffffffffffff1673ffffffffffffffffffffffffffffffffffffffff1614611d0f576040517f08c379a000000000000000000000000000000000000000000000000000000000815260040180806020018281038252601c8152602001807f5468697320646f6d61696e206973206e6f7420612063726561746f720000000081525060200191505060405180910390fd5b80600201548160040154826005015494509450945050505b93509350939050565b60016020528160005260406000208181548110611d4957fe5b9060005260206000209060030201600091509150508060000160009054906101000a900473ffffffffffffffffffffffffffffffffffffffff1690806001015490806002015490508356fe536572766963652077696e6e6572206e6f742063686f6f73656e2e20536572766963653a204445504c4f594544206f72204f50454e4f70657261746f72206973206e6f7420726567697374657265642e2043616e206e6f74206269642e20506c656173652072656769737465722e5365727669636520616e6e6f756e63656d656e7420616c726561647920636c6f7365644f6e6c7920736572766963652070726f76696465722063616e206465706c6f792074686520736572766963654f6e6c7920736572766963652063726561746f722063616e20636c6f73652074686520616e6e6f756e63656d656e744f70657261746f72206973206e6f7420726567697374657265642077697468207468697320616464726573732e20506c656173652072656769737465722e5365727669636520494420666f72206f70657261746f7220616c7265616479206578697374734f70657261746f72206973206e6f7420726567697374657265642e2043616e206e6f74206c6f6f6b20696e746f2e20506c656173652072656769737465722e53657276696365206973207374696c6c206f70656e206f72206e6f74206578697374734f6e6c7920736572766963652063726561746f722063616e206c6f6f6b20696e746f2074686520696e666f726d6174696f6ea265627a7a7231582041427deaf1532efabd743ec7c56ab5b73b90f90576a87629b9dc7e40903c27e864736f6c63430005100032",
  "source": "pragma solidity >=0.4.21 <0.7.0;\ncontract Federation {\n\n    enum ServiceState {Open, Closed, Deployed}\n    struct Operator {\n        bytes32 name;\n        bool registered;\n    }\n\n    struct Service {\n        address creator;\n        bytes32 endpoint_consumer;\n        bytes32 id;\n        address provider;\n        bytes32 endpoint_provider;\n        bytes32 req_info;\n        ServiceState state;\n    }\n\n    struct Bid {\n        address bid_address;\n        uint price;\n        bytes32 endpoint_provider;\n    }\n\n    mapping(bytes32 => uint) public bidCount;\n    mapping(bytes32 => Bid[]) public bids;\n    mapping(bytes32 => Service) public service;\n    mapping(address => Operator) public operator;\n\n    event OperatorRegistered(address operator, bytes32 name);\n    event ServiceAnnouncement(bytes32 requirements, bytes32 id);\n    event NewBid(bytes32 _id, uint256 max_bid_index);\n    event ServiceAnnouncementClosed(bytes32 _id);\n    event ServiceDeployedEvent(bytes32 _id);\n\n    function addOperator(bytes32 name) public {\n        Operator storage current_operator = operator[msg.sender];\n        require(name.length > 0, \"Name is not valid\");\n        require(current_operator.registered == false, \"Operator already registered\");\n        current_operator.name = name;\n        current_operator.registered = true;\n        emit OperatorRegistered(msg.sender, name);\n    }\n\n    function getOperatorInfo(address op_address) public view returns (bytes32 name) {\n        Operator storage current_operator = operator[op_address];\n        require(current_operator.registered == true, \"Operator is not registered with this address. Please register.\");\n        return current_operator.name;\n\t}\n\n    function AnnounceService(bytes32 _requirements, bytes32 _endpoint_consumer, bytes32 _id) public returns(ServiceState) {\n        Operator storage current_operator = operator[msg.sender];\n        Service storage current_service = service[_id];\n        require(current_operator.registered == true, \"Operator is not registered. Can not bid. Please register.\");\n        require(current_service.id != _id, \"Service ID for operator already exists\");\n\n        service[_id] = Service(msg.sender, _endpoint_consumer, _id, msg.sender,  _endpoint_consumer, _requirements, ServiceState.Open);\n        emit ServiceAnnouncement(_requirements, _id);\n        return ServiceState.Open;\n    }\n\n    function GetServiceState(bytes32 _id) public view returns (ServiceState) {\n        // Service storage current_service = service[_id];\n        // require(service[_id].creator == _creator, \"Service not exists\");\n        // assert(service[_id].state == ServiceState.Open);\n        return service[_id].state;\n    }\n\n    function GetServiceInfo(bytes32 _id, bool provider, address call_address) public view returns (bytes32, bytes32, bytes32) {\n        Operator storage current_operator = operator[call_address];\n        Service storage current_service = service[_id];\n        require(current_operator.registered == true, \"Operator is not registered. Can not look into. Please register.\");\n        require(current_service.state >= ServiceState.Closed, \"Service is still open or not exists\");\n        if(provider == true) {\n                require(current_service.provider == call_address, \"This domain is not a winner\");\n                return(current_service.id, current_service.endpoint_consumer, current_service.req_info);\n        }\n        else {\n                require(current_service.creator == call_address, \"This domain is not a creator\");\n                return(current_service.id, current_service.endpoint_provider, current_service.req_info);\n        }\n    }\n\n    function PlaceBid(bytes32 _id, uint32 _price, bytes32 _endpoint) public returns (uint256) {\n        Operator storage current_operator = operator[msg.sender];\n        Service storage current_service = service[_id];\n        require(current_operator.registered == true, \"Operator is not registered. Can not bid. Please register.\");\n        require(current_service.state == ServiceState.Open, \"Service is closed or not exists\");\n        // uint256 max_bid_index = bids[_id].push(Bid(msg.sender, _price, _endpoint));\n        // uint256 max_bid_index = 0;\n        uint256 max_bid_index = bids[_id].push(Bid(msg.sender, _price, _endpoint));\n        bidCount[_id] = max_bid_index;\n        emit NewBid(_id, max_bid_index);\n        return max_bid_index;\n    }\n\n    function GetBidCount(bytes32 _id, address _creator) public view returns (uint256) {\n        Service storage current_service = service[_id];\n        require(current_service.id == _id, \"Service not exists\");\n        require(current_service.creator == _creator, \"Only service creator can look into the information\");\n        return bidCount[_id];\n    }\n\n    function GetBid(bytes32 _id, uint256 bider_index, address _creator) public view returns (address, uint, uint256) {\n        Service storage current_service = service[_id];\n        Bid[] storage current_bid_pool = bids[_id];\n        require(current_service.id == _id, \"Service not exists\");\n        require(current_service.creator == _creator, \"Only service creator can look into the information\");\n        require(bids[_id].length > 0, \"No bids for requested Service\");\n        return (current_bid_pool[bider_index].bid_address, current_bid_pool[bider_index].price, bider_index);\n        // return bids[_id];\n    }\n\n    function ChooseProvider(bytes32 _id, uint256 bider_index) public returns (bytes32 endpoint_provider) {\n        Service storage current_service = service[_id];\n        Bid[] storage current_bid_pool = bids[_id];\n        require(current_service.id == _id, \"Service not exists\");\n        require(current_service.creator == msg.sender, \"Only service creator can close the announcement\");\n        require(current_service.state == ServiceState.Open, \"Service announcement already closed\");\n\n        current_service.state = ServiceState.Closed;\n        // address bid_address_= current_bid_pool[bider_index].bid_address;\n        service[_id].provider = current_bid_pool[bider_index].bid_address;\n        service[_id].endpoint_provider = current_bid_pool[bider_index].endpoint_provider;\n        emit ServiceAnnouncementClosed(_id);\n        return service[_id].endpoint_provider;\n        // return (current_bid_pool[bider_index].bid_address, current_bid_pool[bider_index].price);\n    }\n\n    function isWinner(bytes32 _id, address _winner) public view returns (bool) {\n        Service storage current_service = service[_id];\n        require(current_service.state == ServiceState.Closed, \"Service winner not choosen. Service: DEPLOYED or OPEN\");\n        if(current_service.provider == _winner) {\n            return true;\n        }\n        else {\n            return false;\n        }\n    }\n\n    function ServiceDeployed(bytes32 info, bytes32 _id) public returns (bool) {\n        Service storage current_service = service[_id];\n        require(current_service.id == _id, \"Service not exists\");\n        require(current_service.provider == msg.sender, \"Only service provider can deploy the service\");\n        require(current_service.state == ServiceState.Closed, \"Service winner not choosen. Service: DEPLOYED or OPEN\");\n        current_service.state = ServiceState.Deployed;\n        current_service.req_info = info;\n        emit ServiceDeployedEvent(_id);\n        return true;\n    }\n\n\n}",
  "sourcePath": "/mnt/c/Users/user/Documents/5G-Growth/papers/Federation/Federation - mininet/code/federation_mininet/contracts/contracts/Federation.sol",
  "compiler": {
    "name": "solc",
    "version": "0.5.16+commit.9c3226ce.Emscripten.clang"
  },
  "schemaVersion": "3.0.23",
  "updatedAt": "2020-06-17T16:07:03.879Z",
  "networkType": "ethereum",
  "devdoc": {
    "methods": {}
  },
  "userdoc": {
    "methods": {}
  }
}